{
  "contractName": "StudentExpenseTracker",
  "abi": [
    {
      "anonymous": false,
      "inputs": [
        {
          "indexed": false,
          "internalType": "string",
          "name": "studentId",
          "type": "string"
        },
        {
          "indexed": false,
          "internalType": "uint256",
          "name": "amount",
          "type": "uint256"
        },
        {
          "indexed": false,
          "internalType": "string",
          "name": "description",
          "type": "string"
        }
      ],
      "name": "ExpenseAdded",
      "type": "event"
    },
    {
      "inputs": [
        {
          "internalType": "uint256",
          "name": "",
          "type": "uint256"
        }
      ],
      "name": "expenses",
      "outputs": [
        {
          "internalType": "string",
          "name": "studentId",
          "type": "string"
        },
        {
          "internalType": "uint256",
          "name": "amount",
          "type": "uint256"
        },
        {
          "internalType": "string",
          "name": "description",
          "type": "string"
        }
      ],
      "stateMutability": "view",
      "type": "function",
      "constant": true
    },
    {
      "inputs": [
        {
          "internalType": "string",
          "name": "",
          "type": "string"
        },
        {
          "internalType": "uint256",
          "name": "",
          "type": "uint256"
        }
      ],
      "name": "studentExpenses",
      "outputs": [
        {
          "internalType": "uint256",
          "name": "",
          "type": "uint256"
        }
      ],
      "stateMutability": "view",
      "type": "function",
      "constant": true
    },
    {
      "inputs": [
        {
          "internalType": "string",
          "name": "studentId",
          "type": "string"
        },
        {
          "internalType": "uint256",
          "name": "amount",
          "type": "uint256"
        },
        {
          "internalType": "string",
          "name": "description",
          "type": "string"
        }
      ],
      "name": "addExpense",
      "outputs": [],
      "stateMutability": "nonpayable",
      "type": "function"
    },
    {
      "inputs": [],
      "name": "getExpensesCount",
      "outputs": [
        {
          "internalType": "uint256",
          "name": "",
          "type": "uint256"
        }
      ],
      "stateMutability": "view",
      "type": "function",
      "constant": true
    },
    {
      "inputs": [
        {
          "internalType": "uint256",
          "name": "index",
          "type": "uint256"
        }
      ],
      "name": "getExpense",
      "outputs": [
        {
          "internalType": "string",
          "name": "studentId",
          "type": "string"
        },
        {
          "internalType": "uint256",
          "name": "amount",
          "type": "uint256"
        },
        {
          "internalType": "string",
          "name": "description",
          "type": "string"
        }
      ],
      "stateMutability": "view",
      "type": "function",
      "constant": true
    },
    {
      "inputs": [
        {
          "internalType": "string",
          "name": "studentId",
          "type": "string"
        }
      ],
      "name": "getStudentExpenses",
      "outputs": [
        {
          "internalType": "uint256[]",
          "name": "",
          "type": "uint256[]"
        }
      ],
      "stateMutability": "view",
      "type": "function",
      "constant": true
    }
  ],
  "bytecode": "0x608060405234801561001057600080fd5b50610d17806100206000396000f3fe608060405234801561001057600080fd5b50600436106100625760003560e01c80630daded9514610067578063106caaa114610085578063373a58fb146100a1578063735e5db6146100d157806393e9feef14610103578063af4afe0a14610133575b600080fd5b61006f610165565b60405161007c9190610a9e565b60405180910390f35b61009f600480360381019061009a919061081a565b610171565b005b6100bb60048036038101906100b691906107c6565b610293565b6040516100c89190610a9e565b60405180910390f35b6100eb60048036038101906100e69190610899565b6102da565b6040516100fa93929190610a39565b60405180910390f35b61011d60048036038101906101189190610785565b6104a5565b60405161012a9190610a17565b60405180910390f35b61014d60048036038101906101489190610899565b61051b565b60405161015c93929190610a39565b60405180910390f35b60008080549050905090565b6000604051806060016040528085815260200184815260200183815250908060018154018082558091505060019003906000526020600020906003020160009091909190915060008201518160000190805190602001906101d3929190610665565b506020820151816001015560408201518160020190805190602001906101fa929190610665565b50505060018360405161020d9190610a00565b9081526020016040518091039020600160008054905061022d9190610b7a565b90806001815401808255809150506001900390600052602060002001600090919091909150557f5dd58e1b854753d5314ee0a1fb25e83147d9f78fb2605243e23b0ac5b3f1f19583838360405161028693929190610a39565b60405180910390a1505050565b60018280516020810182018051848252602083016020850120818352809550505050505081815481106102c557600080fd5b90600052602060002001600091509150505481565b6060600060606000805490508410610327576040517f08c379a000000000000000000000000000000000000000000000000000000000815260040161031e90610a7e565b60405180910390fd5b6000808581548110610362577f4e487b7100000000000000000000000000000000000000000000000000000000600052603260045260246000fd5b906000526020600020906003020190508060000181600101548260020182805461038b90610bfa565b80601f01602080910402602001604051908101604052809291908181526020018280546103b790610bfa565b80156104045780601f106103d957610100808354040283529160200191610404565b820191906000526020600020905b8154815290600101906020018083116103e757829003601f168201915b5050505050925080805461041790610bfa565b80601f016020809104026020016040519081016040528092919081815260200182805461044390610bfa565b80156104905780601f1061046557610100808354040283529160200191610490565b820191906000526020600020905b81548152906001019060200180831161047357829003601f168201915b50505050509050935093509350509193909250565b60606001826040516104b79190610a00565b908152602001604051809103902080548060200260200160405190810160405280929190818152602001828054801561050f57602002820191906000526020600020905b8154815260200190600101908083116104fb575b50505050509050919050565b6000818154811061052b57600080fd5b906000526020600020906003020160009150905080600001805461054e90610bfa565b80601f016020809104026020016040519081016040528092919081815260200182805461057a90610bfa565b80156105c75780601f1061059c576101008083540402835291602001916105c7565b820191906000526020600020905b8154815290600101906020018083116105aa57829003601f168201915b5050505050908060010154908060020180546105e290610bfa565b80601f016020809104026020016040519081016040528092919081815260200182805461060e90610bfa565b801561065b5780601f106106305761010080835404028352916020019161065b565b820191906000526020600020905b81548152906001019060200180831161063e57829003601f168201915b5050505050905083565b82805461067190610bfa565b90600052602060002090601f01602090048101928261069357600085556106da565b82601f106106ac57805160ff19168380011785556106da565b828001600101855582156106da579182015b828111156106d95782518255916020019190600101906106be565b5b5090506106e791906106eb565b5090565b5b808211156107045760008160009055506001016106ec565b5090565b600061071b61071684610aea565b610ab9565b90508281526020810184848401111561073357600080fd5b61073e848285610bb8565b509392505050565b600082601f83011261075757600080fd5b8135610767848260208601610708565b91505092915050565b60008135905061077f81610cca565b92915050565b60006020828403121561079757600080fd5b600082013567ffffffffffffffff8111156107b157600080fd5b6107bd84828501610746565b91505092915050565b600080604083850312156107d957600080fd5b600083013567ffffffffffffffff8111156107f357600080fd5b6107ff85828601610746565b925050602061081085828601610770565b9150509250929050565b60008060006060848603121561082f57600080fd5b600084013567ffffffffffffffff81111561084957600080fd5b61085586828701610746565b935050602061086686828701610770565b925050604084013567ffffffffffffffff81111561088357600080fd5b61088f86828701610746565b9150509250925092565b6000602082840312156108ab57600080fd5b60006108b984828501610770565b91505092915050565b60006108ce83836109e2565b60208301905092915050565b60006108e582610b2a565b6108ef8185610b4d565b93506108fa83610b1a565b8060005b8381101561092b57815161091288826108c2565b975061091d83610b40565b9250506001810190506108fe565b5085935050505092915050565b600061094382610b35565b61094d8185610b5e565b935061095d818560208601610bc7565b61096681610cb9565b840191505092915050565b600061097c82610b35565b6109868185610b6f565b9350610996818560208601610bc7565b80840191505092915050565b60006109af601683610b5e565b91507f457870656e736520646f6573206e6f74206578697374000000000000000000006000830152602082019050919050565b6109eb81610bae565b82525050565b6109fa81610bae565b82525050565b6000610a0c8284610971565b915081905092915050565b60006020820190508181036000830152610a3181846108da565b905092915050565b60006060820190508181036000830152610a538186610938565b9050610a6260208301856109f1565b8181036040830152610a748184610938565b9050949350505050565b60006020820190508181036000830152610a97816109a2565b9050919050565b6000602082019050610ab360008301846109f1565b92915050565b6000604051905081810181811067ffffffffffffffff82111715610ae057610adf610c8a565b5b8060405250919050565b600067ffffffffffffffff821115610b0557610b04610c8a565b5b601f19601f8301169050602081019050919050565b6000819050602082019050919050565b600081519050919050565b600081519050919050565b6000602082019050919050565b600082825260208201905092915050565b600082825260208201905092915050565b600081905092915050565b6000610b8582610bae565b9150610b9083610bae565b925082821015610ba357610ba2610c2c565b5b828203905092915050565b6000819050919050565b82818337600083830152505050565b60005b83811015610be5578082015181840152602081019050610bca565b83811115610bf4576000848401525b50505050565b60006002820490506001821680610c1257607f821691505b60208210811415610c2657610c25610c5b565b5b50919050565b7f4e487b7100000000000000000000000000000000000000000000000000000000600052601160045260246000fd5b7f4e487b7100000000000000000000000000000000000000000000000000000000600052602260045260246000fd5b7f4e487b7100000000000000000000000000000000000000000000000000000000600052604160045260246000fd5b6000601f19601f8301169050919050565b610cd381610bae565b8114610cde57600080fd5b5056fea26469706673582212205dd5434f754ebcfb772a993d16009c85920b15b7b1a7f6af4ea358958458a3ab64736f6c63430008000033",
  "immutableReferences": {},
  "source": "// SPDX-License-Identifier: MIT\r\npragma solidity ^0.8.0;\r\n\r\ncontract StudentExpenseTracker {\r\n    struct Expense {\r\n        string studentId;\r\n        uint256 amount;\r\n        string description;\r\n    }\r\n\r\n    Expense[] public expenses;\r\n    mapping(string => uint256[]) public studentExpenses;\r\n\r\n    event ExpenseAdded(string studentId, uint256 amount, string description);\r\n\r\n    function addExpense(string memory studentId, uint256 amount, string memory description) public {\r\n        expenses.push(Expense(studentId, amount, description));\r\n        studentExpenses[studentId].push(expenses.length - 1);\r\n        emit ExpenseAdded(studentId, amount, description);\r\n    }\r\n\r\n    function getExpensesCount() public view returns (uint256) {\r\n        return expenses.length;\r\n    }\r\n\r\n    function getExpense(uint256 index) public view returns (string memory studentId, uint256 amount, string memory description) {\r\n        require(index < expenses.length, \"Expense does not exist\");\r\n        Expense storage expense = expenses[index];\r\n        return (expense.studentId, expense.amount, expense.description);\r\n    }\r\n\r\n    function getStudentExpenses(string memory studentId) public view returns (uint256[] memory) {\r\n        return studentExpenses[studentId];\r\n    }\r\n}\r\n",
  "sourcePath": "D:\\Code\\Projects\\Aman Blockchain\\student-expense-tracker\\contracts\\StudentExpenseTracker.sol",
  "compiler": {
    "name": "solc",
    "version": "0.8.0+commit.c7dfd78e.Emscripten.clang"
  },
  "schemaVersion": "3.4.16",
  "updatedAt": "2024-05-23T04:04:08.308Z",
  "networkType": "ethereum",
  "devdoc": {
    "kind": "dev",
    "methods": {},
    "version": 1
  },
  "userdoc": {
    "kind": "user",
    "methods": {},
    "version": 1
  }
}